:0300E6000108000E
:0400E20075890122F9
:1000B900758CDCE4F58AD28CEF6010308DFAC28D34
:0C00C900758CDCE4F58AD28C1F80ED22DF
:10008F00E50814600E14600F1460102403700EB294
:10009F00A4800AB2A58006B2A68002B2A70508E521
:0900AF0008D394034003E4F508B2
:0100B8002225
:0D00D5001200E27F641200B912008F80F665
:03000000020003F8
:0C000300787FE4F6D8FD75810802004A01
:10000F000200D5E493A3F8E493A34003F68001F232
:10001F0008DFF48029E493A3F85407240CC8C333F2
:10002F00C4540F4420C8834004F456800146F6DFC1
:10003F00E4800B01020408102040809000E6E47E6B
:10004F00019360BCA3FF543F30E509541FFEE493B6
:10005F00A360010ECF54C025E060A840B8E493A37D
:10006F00FAE493A3F8E493A3C8C582C8CAC583CAA8
:10007F00F0A3C8C582C8CAC583CADFE9DEE780BE60
:0100E9000016
:00000001FF
