:10097700120988120960B2A47F647E0012093480CC
:01098700F57A
:0E098800759850758E11759CFDD2AFD2AC22C1
:030023000208EAE6
:1008EA00C0E0C0F0C083C082C0D075D000C000C0D4
:1008FA0001C002C003C004C005C006C00730990782
:10090A00C2991209A58008309805C298120996D092
:10091A0007D006D005D004D003D002D001D000D031
:0A092A00D0D082D083D0F0D0E032AC
:0109A500222F
:04099600AF998F99ED
:01099A00223A
:0409A0000208000049
:10096000759D02E4F5BDF5BE53A2FB75BCE97F029F
:07097000FE120934D2AD2292
:10093400E4FDFCC3ED9FEC9E5021E4FBFA90000023
:10094400A3E5826419458370F70BBB00010AEB64CD
:0B0954004E4A70E90DBD00010C80D878
:01095F002275
:03002B0002088C3C
:10088C00C0E0C0F0C083C082C0D075D000C002C030
:10089C0003C004C005C006C007E5BC30E42953BE44
:1008AC0003AFBDEF75F004A4AEF0ADBE7C002DF52A
:1008BC0009EC3EF50885BD993099FDC2997F057EFE
:1008CC000012093475BCE9D007D006D005D004D08D
:0E08DC0003D002D0D0D082D083D0F0D0E03252
:05099B00AE08AF0922C7
:03000000020800F3
:0C080000787FE4F6D8FD758109020847F6
:10080C00020977E493A3F8E493A34003F68001F282
:10081C0008DFF48029E493A3F85407240CC8C333ED
:10082C00C4540F4420C8834004F456800146F6DFBC
:10083C00E4800B01020408102040809009A0E47EA3
:10084C00019360BCA3FF543F30E509541FFEE493B1
:10085C00A360010ECF54C025E060A840B8E493A378
:10086C00FAE493A3F8E493A3C8C582C8CAC583CAA3
:10087C00F0A3C8C582C8CAC583CADFE9DEE780BE5B
:0109A4000052
:00000001FF
