:040DD00002260000F7
:100DED00759D02E4F5BDF5BE53A2FB75BCE97F020E
:070DFD00FE120D85D2AD22AC
:100D8500E4FDFCC3ED9FEC9E5021E4FBFA900000CE
:100D9500A3E5826419458370F70BBB00010AEB6478
:0B0DA5004E4A70E90DBD00010C80D823
:010DB0002220
:03002B00020D467D
:100D4600C0E0C0F0C0D075D000C004C005C006C069
:100D560007E5BC30E41A53BE03AFBDEF75F004A43B
:100D6600AEF0ADBE7C002DF527EC3EF52675BCE950
:0F0D7600D007D006D005D004D0D0D0F0D0E032D6
:100DB100AC26AD27E41209ABE4FBFA798078441242
:0F0DC1000909E4FBFA79FA78431208000209E401
:0E0E0400120E12120DED120DB1120AD980F865
:100DD40016080003009F0025000D009900490041FA
:080DE400001F0001000900FFDF
:100CB100EF146023146016146009147022C2A0D2CC
:100CC100A18004D2A0C2A1D2A2D2A38012D2A0D26A
:100CD100A1C2A2D2A38008D2A0D2A1D2A2C2A3EF64
:100CE1006403700CED25E02408F808E614F5802271
:0B0CF100ED25E02408F808E6F580225D
:040AD900AB07AA06B7
:100ADD00D3EB940FEA942740047A277B0F7C037D98
:100AED00E8AF03AE02120A658F257C037DE8AF03E4
:100AFD00AE02120A657E007F64CFCDCFCECCCE1272
:100B0D000A658F247C007D64AF03AE02120A657EF8
:100B1D00007F0ACFCDCFCECCCE120A658F23AE0289
:100B2D00AF037C007D0A120A658D227D0A7F0412B7
:100B3D000CB1E4F521F520F51FF51EE47F32FEFD25
:100B4D00FCAB21AA20A91FA81EC3120AC85017E585
:100B5D00212401F521E43520F520E4351FF51FE4AE
:100B6D00351EF51E80D5AD247F03120CB1E4F521A1
:100B7D00F520F51FF51EE47F32FEFDFCAB21AA200A
:100B8D00A91FA81EC3120AC85017E5212401F5217B
:100B9D00E43520F520E4351FF51FE4351EF51E80E4
:100BAD00D5AD237F02120CB1E4F521F520F51FF52B
:100BBD001EE47F32FEFDFCAB21AA20A91FA81EC397
:100BCD00120AC85017E5212401F521E43520F5203E
:100BDD00E4351FF51FE4351EF51E80D5AD227F01CE
:100BED00120CB1E4F521F520F51FF51EE47F32FE60
:100BFD00FDFCAB21AA20A91FA81EC3120AC85017BD
:100C0D00E5212401F521E43520F520E4351FF51FFC
:070C1D00E4351EF51E80D531
:010C240022AD
:0E0E1200759850758E11759CFDD2AFD2AC2232
:03002300020CFCD0
:100CFC00C0E0C0F0C083C082C0D075D000C000C0BE
:100D0C0001C002C003C004C005C006C0073099076B
:100D1C00C299120E258008309805C298120E20D068
:100D2C0007D006D005D004D003D002D001D000D01B
:0A0D3C00D0D082D083D0F0D0E03296
:010E250022AA
:040E2000AF998F995E
:010E240022AB
:10080000EC4D6011E8497017ED33EC3304600DE4F2
:10081000FCFFFEFD22E933E8330470F8020A5012AF
:100820000A1B58046009E4CC2481500628500902B0
:100830000A5A284003020A57C0E0EB4A7044B980C4
:1008400006D0E0FB020A46EF4E701CBD8008EBFFAD
:10085000EAFEE9FD80EBE98DF0A4FEE5F00208E98F
:10086000E9CDF9EAFEEBFFEF89F0A4FCE5F0CE89D3
:10087000F0A42EFFE435F0CD89F0A42DFEE435F090
:100880008067EF4E7005BD80D780C3EF8BF0A4ACBE
:10089000F0EE8BF0A42CFCE435F0F8EF8AF0A42CF9
:1008A000E5F038FCE433CB8DF0A42CFCE5F03BF80C
:1008B000EE8AF0A42CFCE5F038F8E433CF89F0A4FC
:1008C0002CFCE5F038CF3400CE89F0A42FFFE5F002
:1008D0003EFEE433C98DF0A42EFEE5F039CD8AF05A
:1008E000A42FFFE5F03EFEE43DFD33D0E0FB5007D2
:1008F0000BBB000F020A5AEC2CFCEF33FFEE33FE69
:06090000ED33FD020A3296
:10090600020A5AEC5D046005E859047003020A50B5
:10091600120A1B580460F6EC4860F2EC7004FDFE07
:10092600FF22C860DB2481C85009C39860025006C4
:10093600020A579850CAF582E9294B4A7005AB82DC
:10094600020A4675F0007C1A7880C3EF9BEE9AED9A
:1009560099400DC3EF9BFFEE9AFEED99FDE842F03C
:10096600DC23ACF0D0E0FFD0E0FED0E0FDAB82208F
:10097600E7101BEB60BAEC2CFCEF33FFEE33FEED19
:1009860033FD020A32E803F830E705C0F075F000DF
:10099600EF2FFFEE33FEED33FD40B830E7C280AAFD
:1009A60075F020800E75F010800575F0087D007ECC
:1009B600007F003392D530D503120ABAEC334010CB
:1009C600EF33FFEE33FEED33FDEC33FCD5F0ED22D5
:0E09D600E5F0247EA2D513CC92E7CDCEFF2211
:1009E400EDD2E7CD33EC3392D524814006E4FFFE0B
:1009F400FDFC22FCE4CFCECDCC24E0501174FF806A
:100A0400EDC3CC13CCCD13CDCE13CECF13CF047006
:070A1400F030D5DE020ABA42
:100A1B00E9D2E7C933E833F892D5EDD2E7CD33EC21
:070A2B0033FC5002B2D5229A
:100A3200EC30E7100FBF000C0EBE00080DBD000425
:100A42000BEB6014A2D5EB13FCED92E7FD2274FFD1
:100A5200FCFDFEFF22E480F8A2D574FF13FC7D802A
:030A6200E480EF3E
:03000000020C25CA
:0C0C2500787FE4F6D8FD758127020C6C86
:100A6500BC000BBE0029EF8DF084FFADF022E4CC75
:100A7500F875F008EF2FFFEE33FEEC33FCEE9DEC3E
:100A8500984005FCEE9DFE0FD5F0E9E4CEFD22ED84
:100A9500F8F5F0EE8420D21CFEADF075F008EF2FCE
:100AA500FFED33FD4007985006D5F0F222C398FDBF
:050AB5000FD5F0EA225C
:0E0ABA00C3E49FFFE49EFEE49DFDE49CFC224D
:100AC800EB9FF5F0EA9E42F0E99D42F0E89C45F084
:010AD80022FB
:100C3100020E04E493A3F8E493A34003F68001F2C7
:100C410008DFF48029E493A3F85407240CC8C333C4
:100C5100C4540F4420C8834004F456800146F6DF93
:100C6100E4800B0102040810204080900DD0E47E46
:100C7100019360BCA3FF543F30E509541FFEE49388
:100C8100A360010ECF54C025E060A840B8E493A34F
:100C9100FAE493A3F8E493A3C8C582C8CAC583CA7A
:100CA100F0A3C8C582C8CAC583CADFE9DEE780BE32
:010DEC000006
:00000001FF
