:040B0500022C0000BE
:100B3500759D02E4F5BD75BCE97F02FE120AEA75F2
:030B4500A8A02243
:100AEA00EF1FAA0670011E4A60107C137D88ED1D57
:0A0AFA00AA0470011C4A60E880F4B1
:010B040022CE
:03002B00020AC204
:100AC200C0E0C0F0C083C082C0D075D00875BC0041
:100AD200AFBD120B64AFBE120B64120B20D0D0D08C
:080AE20082D083D0F0D0E03295
:100B2000AFBDEF75F004A4AEF0ADBE7C002DF52D89
:050B3000EC3EF52C2253
:050B6C00AE2CAF2D22AC
:0E0B4800120B56120B35120B6C12080080F8BF
:100B090014100003009F0025000D009900490041C1
:060B1900001F00010009AD
:100A8800EF146023146016146009147022C2A0D2F7
:100A9800A18004D2A0C2A1D2A2D2A38012D2A0D295
:100AA800A1C2A2D2A38008D2A0D2A1D2A2C2A3ED91
:0A0AB80025E02410F808E6F580227E
:04080000AB07AA0692
:10080400D3EB940FEA942740047A277B0F7C037D73
:10081400E8AF03AE021209D88F2B7C037DE8AF0347
:10082400AE021209D87E007F64CFCDCFCECCCE12DB
:1008340009D88F2A7C007D64AF03AE021209D87EEA
:10084400007F0ACFCDCFCECCCE1209D88F29AE02ED
:10085400AF037C007D0A1209D88D28AD2B7F0412CA
:100864000A88E4F527F526F525F524E47F32FEFD14
:10087400FCAB27AA26A925A824C3120A2D5017E5E4
:10088400272401F527E43526F526E43525F525E466
:100894003524F52480D5AD2A7F03120A88E4F52790
:1008A400F526F525F524E47F32FEFDFCAB27AA26C8
:1008B400A925A824C3120A2D5017E5272401F527DA
:1008C400E43526F526E43525F525E43524F524809C
:1008D400D5AD297F02120A88E4F527F526F525F51A
:1008E40024E47F32FEFDFCAB27AA26A925A824C355
:1008F400120A2D5017E5272401F527E43526F5269D
:10090400E43525F525E43524F52480D5AD287F018B
:10091400120A88E4F527F526F525F524E47F32FE4E
:10092400FDFCAB27AA26A925A824C3120A2D50171B
:10093400E5272401F527E43526F526E43525F525B4
:07094400E43524F52480D501
:01094B002289
:0E0B5600759850759CFD758E11D2ACD2AF22F1
:03002300020A3E90
:100A3E00C0E0C0F0C083C082C0D075D000C000C07E
:100A4E0001C002C003C004C005C006C0073099072C
:100A5E00C299120B768008309805C298120B71D08D
:100A6E0007D006D005D004D003D002D001D000D0DC
:0A0A7E00D0D082D083D0F0D0E03257
:080B64003099FDC2998F99221E
:010B7600225C
:040B7100AF998F9910
:010B7500225D
:0300000002094CA6
:0C094C00787FE4F6D8FD75812D02099338
:1009D800BC000BBE0029EF8DF084FFADF022E4CC03
:1009E800F875F008EF2FFFEE33FEEC33FCEE9DECCC
:1009F800984005FCEE9DFE0FD5F0E9E4CEFD22ED12
:100A0800F8F5F0EE8420D21CFEADF075F008EF2F5B
:100A1800FFED33FD4007985006D5F0F222C398FD4C
:050A28000FD5F0EA22E9
:100A2D00EB9FF5F0EA9E42F0E99D42F0E89C45F01F
:010A3D002296
:10095800020B48E493A3F8E493A34003F68001F262
:1009680008DFF48029E493A3F85407240CC8C333A0
:10097800C4540F4420C8834004F456800146F6DF6F
:10098800E4800B0102040810204080900B05E47EEF
:10099800019360BCA3FF543F30E509541FFEE49364
:1009A800A360010ECF54C025E060A840B8E493A32B
:1009B800FAE493A3F8E493A3C8C582C8CAC583CA56
:1009C800F0A3C8C582C8CAC583CADFE9DEE780BE0E
:010B1F0000D5
:00000001FF
