:06025100010C00010D008C
:0E022D00759201D2A4D2A5D2A6D2A7C2902269
:0B023B00C288C2B8C2B8D2A8D2AF225D
:10020800D2AFD2A9C2B9758901C28D758CDCE4F56B
:040218008AD28C22D8
:1001BC00E50C14600E14600F1460102403700EB262
:1001CC00A4800AB2A58006B2A68002B2A7050CE5EF
:0901DC000CD394034003E4F50C7C
:0101E50022F7
:0300030002000EEA
:10000E00C0E0C0F0C083C082C0D075D000C000C0B8
:0D001E0001C002C003C004C005C006C00739
:10002B00C290750B00750A00750900750800E47F16
:10003B00507EC3FDFCAB0BAA0AA909A808C3120288
:10004B001C5017E50B2401F50BE4350AF50AE435D2
:10005B0009F509E43508F50880D4D290750B0075C5
:10006B000A00750900750800E47F507EC3FDFCABE8
:10007B000BAA0AA909A808C312021C5017E50B24E6
:10008B0001F50BE4350AF50AE43509F509E4350801
:10009B00F50880D4C290750B00750A0075090075C0
:1000AB000800E47F507EC3FDFCAB0BAA0AA909A88C
:1000BB0008C312021C5017E50B2401F50BE4350A9B
:1000CB00F50AE43509F509E43508F50880D4D29032
:1000DB00750B00750A00750900750800E47F507EEA
:1000EB00C3FDFCAB0BAA0AA909A808C312021C503A
:1000FB0017E50B2401F50BE4350AF50AE43509F590
:0A010B0009E43508F50880D4C2901D
:10011500D007D006D005D004D003D002D001D0003E
:0B012500D0D0D082D083D0F0D0E032E8
:03000B000201E609
:0401E600C0E0C0D0E5
:1001EA00C28D758CDC758A00D28C050DE50DC39421
:0901FA006440061201BC750D0001
:05020300D0D0D0E03274
:0B02460012022D12023B12020880FE83
:03000000020130CA
:0C013000787FE4F6D8FD75810D020177A0
:10021C00EB9FF5F0EA9E42F0E99D42F0E89C45F038
:01022C0022AF
:10013C00020246E493A3F8E493A34003F68001F291
:10014C0008DFF48029E493A3F85407240CC8C333C4
:10015C00C4540F4420C8834004F456800146F6DF93
:10016C00E4800B0102040810204080900251E47ED0
:10017C00019360BCA3FF543F30E509541FFEE49388
:10018C00A360010ECF54C025E060A840B8E493A34F
:10019C00FAE493A3F8E493A3C8C582C8CAC583CA7A
:1001AC00F0A3C8C582C8CAC583CADFE9DEE780BE32
:0102570000A6
:00000001FF
