:10097C0014080003009F0025000D00990049004158
:06098C00001F000100093C
:10080000E4F51FF51EF51DF51CF520F521F582F523
:100810008375920120B260D2A0D2A1D2A2C2A3D28B
:1008200090E52125E02408F808E6F5800521E5217A
:1008300070020520D39409E52094004005E4F520DA
:10084000F521E4F51FF51EF51DF51CE47F507EC370
:10085000FDFCAB1FAA1EA91DA81CC31209935021A1
:10086000E51F2401F51FE4351EF51EE4351DF51DB9
:10087000E4351CF51C80D4E4F520F5217580FFC219
:100880009020B45FD2A0D2A1C2A2D2A3D290AF8254
:10089000EF25E02408F808E6F580A3D3E582940963
:1008A000E58394004005E4F583F582E4F51FF51E29
:1008B000F51DF51CE47F507EC3FDFCAB1FAA1EA9ED
:1008C0001DA81CC31209934003020814E51F24014C
:1008D000F51FE4351EF51EE4351DF51DE4351CF548
:1008E0001C80D1E4F583F5827580FFC29002081464
:030000000208F003
:0C08F000787FE4F6D8FD758121020937FD
:10099300EB9FF5F0EA9E42F0E99D42F0E89C45F0BA
:0109A3002231
:1008FC00020800E493A3F8E493A34003F68001F20A
:10090C0008DFF48029E493A3F85407240CC8C333FC
:10091C00C4540F4420C8834004F456800146F6DFCB
:10092C00E4800B010204081020408090097CE47ED6
:10093C00019360BCA3FF543F30E509541FFEE493C0
:10094C00A360010ECF54C025E060A840B8E493A387
:10095C00FAE493A3F8E493A3C8C582C8CAC583CAB2
:10096C00F0A3C8C582C8CAC583CADFE9DEE780BE6A
:010992000064
:00000001FF
