:0508790012084A80FE98
:03002300020800D0
:10080000C0E0C0F0C083C082C0D075D000C000C0BE
:1008100001C002C003C004C005C006C0073099076C
:10082000C29912087E8008309805C298120871D0CB
:1008300007D006D005D004D003D002D001D000D01C
:0A084000D0D082D083D0F0D0E03297
:01087E002257
:07087100AF99EF2405F59992
:01087800225D
:10084A00D29CC29FD29ED28E758920758DFD758BE2
:0B085A00FD759850D2ACC2BCD2AF229A
:030000000208658E
:0C086500787FE4F6D8FD75810702087961
:00000001FF
