:10027B0014080003009F0025000D00990049004160
:06028B00001F0001000944
:10024100EF146023146016146009147022C2A0D246
:10025100A18004D2A0C2A1D2A2D2A38012D2A0D2E4
:10026100A1C2A2D2A38008D2A0D2A1D2A2C2A3EDE0
:0A02710025E02408F808E6F58022D5
:04000300AB07AA0697
:10000700D3EB940FEA942740047A277B0F7C037D78
:10001700E8AF03AE021201DB8F237C037DE8AF0359
:10002700AE021201DB7E007F64CFCDCFCECCCE12E5
:1000370001DB8F227C007D64AF03AE021201DB7E01
:10004700007F0ACFCDCFCECCCE1201DB8F21AE02FF
:10005700AF037C007D0A1201DB8D20AD237F0412E4
:100067000241E4F51FF51EF51DF51CE47F32FEFD88
:10007700FCAB1FAA1EA91DA81CC31202305017E50E
:100087001F2401F51FE4351EF51EE4351DF51DE49B
:10009700351CF51C80D5AD227F03120241E4F51F04
:1000A700F51EF51DF51CE47F32FEFDFCAB1FAA1EF5
:1000B700A91DA81CC31202305017E51F2401F51F04
:1000C700E4351EF51EE4351DF51DE4351CF51C80D1
:1000D700D5AD217F02120241E4F51FF51EF51DF58E
:1000E7001CE47F32FEFDFCAB1FAA1EA91DA81CC382
:1000F7001202305017E51F2401F51FE4351EF51EC7
:10010700E4351DF51DE4351CF51C80D5AD207F01B8
:10011700120241E4F51FF51EF51DF51CE47F32FEC2
:10012700FDFCAB1FAA1EA91DA81CC3120230501745
:10013700E51F2401F51FE4351EF51EE4351DF51DE9
:07014700E4351CF51C80D516
:01014E00228E
:090292007F0F7E2712000380F7A4
:0300000002014FAB
:0C014F00787FE4F6D8FD7581230201964C
:1001DB00BC000BBE0029EF8DF084FFADF022E4CC08
:1001EB00F875F008EF2FFFEE33FEEC33FCEE9DECD1
:1001FB00984005FCEE9DFE0FD5F0E9E4CEFD22ED17
:10020B00F8F5F0EE8420D21CFEADF075F008EF2F60
:10021B00FFED33FD4007985006D5F0F222C398FD51
:05022B000FD5F0EA22EE
:10023000EB9FF5F0EA9E42F0E99D42F0E89C45F024
:01024000229B
:10015B00020292E493A3F8E493A34003F68001F226
:10016B0008DFF48029E493A3F85407240CC8C333A5
:10017B00C4540F4420C8834004F456800146F6DF74
:10018B00E4800B010204081020408090027BE47E87
:10019B00019360BCA3FF543F30E509541FFEE49369
:1001AB00A360010ECF54C025E060A840B8E493A330
:1001BB00FAE493A3F8E493A3C8C582C8CAC583CA5B
:1001CB00F0A3C8C582C8CAC583CADFE9DEE780BE13
:01029100006C
:00000001FF
