:10000300E4F50BF50AF509F508F50CF50DC2A33077
:10001300B2030200C6E50C705CE50DB40A0050554E
:1000230090002AF828287302004802004D0200526B
:1000330002005702005C02006102006602006B02CC
:100043000070020075758003802B75809F80267574
:100053008025802175800D801C758099801775809F
:10006300498012758041800D75801F80087580015D
:100073008003758009050DE50D7002050CD3940905
:10008300E50C94004005E4F50CF50DE4F50BF50AD9
:10009300F509F508E47F507EC3FDFCAB0BAA0AA962
:1000A30009A808C31200D14003020012E50B240182
:1000B300F50BE4350AF50AE43509F509E43508F5E5
:0E00C3000880D1E4F50CF50D7580FF020012E7
:030000000200E219
:0C00E200787FE4F6D8FD75810D02000364
:1000D100EB9FF5F0EA9E42F0E99D42F0E89C45F085
:0100E10022FC
:00000001FF
