:03000000021000EB
:03000300022000D8
:10100000758170D288C2B8D2A8D2AF75910075929E
:1010100001C29002101612102D021016AF6F7E0A38
:101020007D967CC8DCFEDDFADEF6DFF222C2A4D2B9
:10103000A5D2A6D2A7756F0A12101CD2A4C2A5D23F
:10104000A6D2A7756F0A12101CD2A4D2A5C2A6D22E
:10105000A7756F0A12101CD2A4D2A5D2A6C2A7757A
:061060006F0A12101C22B1
:10200000C0D0C0E0C2D3D2D47806B290756F0512AA
:09201000101CD8F6D0E0D0D0324B
:00000001FF
