:1008FA0014080003009F0025000D009900490041DB
:06090A00001F00010009BE
:10088C00E4F51FF51EF51DF51CF582F583C2A320BA
:10089C00B252AF82EF25E02408F808E6F580A3D326
:1008AC00E5829409E58394004005E4F583F582E440
:1008BC00F51FF51EF51DF51CE47F507EC3FDFCAB4A
:1008CC001FAA1EA91DA81CC312091150C2E51F2482
:1008DC0001F51FE4351EF51EE4351DF51DE4351C30
:0E08EC00F51C80D4E4F583F5827580FF80A1B1
:03000000020800F3
:0C080000787FE4F6D8FD75811F020847E0
:10091100EB9FF5F0EA9E42F0E99D42F0E89C45F03C
:0109210022B3
:10080C0002088CE493A3F8E493A34003F68001F26E
:10081C0008DFF48029E493A3F85407240CC8C333ED
:10082C00C4540F4420C8834004F456800146F6DFBC
:10083C00E4800B01020408102040809008FAE47E4A
:10084C00019360BCA3FF543F30E509541FFEE493B1
:10085C00A360010ECF54C025E060A840B8E493A378
:10086C00FAE493A3F8E493A3C8C582C8CAC583CAA3
:10087C00F0A3C8C582C8CAC583CADFE9DEE780BE5B
:0109100000E6
:00000001FF
