:10080000E4F508F509F50AF50BC2A330B2030208B6
:10081000ACE50A705CE50BB40A005055900823F86B
:1008200028287302084102084602084B02085002B9
:10083000085502085A02085F0208640208690208A3
:100840006E758003802B75809F80267580258021A2
:1008500075800D801C758099801775804980127590
:100860008041800D75801F80087580018003758030
:1008700009050BE50B7002050AD39409E50A9400FB
:100880004005E4F50AF50BE4F508F509AE08AF09F3
:10089000E4FCFD7B507AC3F9F8D31208B750030289
:1008A000080B0509E50970E4050880E0E4F50AF5A0
:0708B0000B7580FF02080B2D
:030000000208CD26
:0C08CD00787FE4F6D8FD75810B0208006E
:1008B700EB9FF5F0EA9E42F0E99D42F0EC6480C8B8
:0608C70064809845F02258
:00000001FF
