:03000300020006F2
:10000600C0E0C0F0C083C082C0D075D000C000C0C0
:0D00160001C002C003C004C005C006C00741
:10002300C290750B00750A00750900750800E47F1E
:10003300507EC3FDFCAB0BAA0AA909A808C3120290
:10004300165017E50B2401F50BE4350AF50AE435E0
:1000530009F509E43508F50880D4D290750B0075CD
:100063000A00750900750800E47F507EC3FDFCABF0
:100073000BAA0AA909A808C31202165017E50B24F4
:1000830001F50BE4350AF50AE43509F509E4350809
:10009300F50880D4C290750B00750A0075090075C8
:1000A3000800E47F507EC3FDFCAB0BAA0AA909A894
:1000B30008C31202165017E50B2401F50BE4350AA9
:1000C300F50AE43509F509E43508F50880D4D2903A
:1000D300750B00750A00750900750800E47F507EF2
:1000E300C3FDFCAB0BAA0AA909A808C31202165048
:1000F30017E50B2401F50BE4350AF50AE43509F598
:1001030009E43508F50880D4C290750B00750A0020
:10011300750900750800E47F507EC3FDFCAB0BAA94
:100123000AA909A808C31202165017E50B2401F502
:100133000BE4350AF50AE43509F509E43508F50851
:1001430080D4D290750B00750A00750900750800FC
:10015300E47F507EC3FDFCAB0BAA0AA909A808C320
:100163001202165017E50B2401F50BE4350AF50AC4
:0E017300E43509F509E43508F50880D4C2909A
:10018100D007D006D005D004D003D002D001D000D2
:0B019100D0D0D082D083D0F0D0E0327C
:09023300C288C2B8D2A8D2AF22E1
:10019C00759201C290120233E4F50FF50EF50DF5D0
:1001AC000CE47F507EC3FDFCAB0FAA0EA90DA80C6E
:1001BC00C31202165017E50F2401F50FE4350EF5A6
:1001CC000EE4350DF50DE4350CF50C80D4E510700E
:1001DC001DE51114600E14600F1460102403700ED2
:1001EC00B2A4800AB2A58006B2A68002B2A7C3E56B
:1001FC00119403E51094004007E4F510F511809874
:0A020C000511E51170920510808EB7
:03000000020227D2
:0C022700787FE4F6D8FD75811102019C7F
:10021600EB9FF5F0EA9E42F0E99D42F0E89C45F03E
:0102260022B5
:00000001FF
