:10080000E4F508F509759201E5087025E50914601D
:100810001014601314601624037016B2A4C29080E2
:1008200010B2A5D290800AB2A6C2908004B2A7D21C
:1008300090C3E5099403E50864809480500A050993
:10084000E509700905088005E4F508F509E4F50DEA
:10085000F50CF50BF50AE47F507EC3FDFCAB0DAA49
:100860000CA90BA80AC3120882509DE50D2401F5BE
:100870000DE4350CF50CE4350BF50BE4350AF50AFF
:0208800080D422
:0300000002089360
:0C089300787FE4F6D8FD75810D020800A6
:10088200EB9FF5F0EA9E42F0E99D42F0E89C45F0CC
:010892002243
:00000001FF
